:1000000070D200204D0500004905000049050000A0
:1000100049050000490500004905000000000000F6
:100020000000000000000000000000004905000082
:1000300049050000000000004905000045050000DA
:100040004905000049050000490500004905000078
:100050004905000049050000490500004905000068
:100060004905000049050000490500004905000058
:100070004905000049050000490500004905000048
:100080004905000049050000490500004905000038
:100090004905000049050000490500004905000028
:1000A0004905000049050000490500004905000018
:1000B0004905000049050000490500004905000008
:1000C00049050000490500004905000049050000F8
:1000D00049050000490500004905000049050000E8
:1000E0004905000049050000000000000000000074
:1000F0000000000049050000490500004905000016
:1001000049050000490500004905000049050000B7
:1001100049050000490500004905000049050000A7
:100120004905000049050000490500004905000097
:100130004905000049050000490500004905000087
:100140004905000049050000490500004905000077
:100150004905000049050000000000000000000003
:10016000000000000000000000000000000000008F
:1001700000000000000000004905000049050000E3
:100180004905000049050000490500004905000037
:100190000000000049050000490500004905000075
:1001A0004905000049050000490500004905000017
:1001B0004905000049050000490500004905000007
:1001C00049050000490500004905000049050000F7
:1001D00049050000490500004905000049050000E7
:1001E00049050000490500004905000049050000D7
:1001F00049050000490500004905000049050000C7
:100200004905000000000000000000004905000052
:1002100049050000490500004905000049050000A6
:100220004905000049050000490500004905000096
:100230004905000049050000490500004905000086
:100240004905000049050000490500004905000076
:100250004905000049050000490500004905000066
:1002600000000000B0F5002F0FD2084B4AF20151F8
:100270005A8AD207FCD5586199805A8AD207FCD590
:1002800000F50050B0F5002FF2D370470040004158
:1002900070B51C4E338823F0300304460D461046DB
:1002A0003380738ADB07FCD54AF21553154AB380B5
:1002B000538AD907FCD518B3124A4AF204560428C7
:1002C000844628BF4FF0040C538ADB07FCD5A4F109
:1002D000040E00239C4588BF55F8231003F1010349
:1002E00098BF4FF0FF31042B4EF8041FF2D1B0EB52
:1002F0000C00546105EB8C05968004EB8C04DED178
:1003000070BD00BF004000412DE9F04F564B87B053
:100310001A8842F480421A801A88834642F40042C6
:100320001A8000AF400B0B1FABF1040201F1FC0679
:1003300002E0B34200F08B8053F8045F52F8044FA0
:10034000A542F6D0DFF8249119F800405CB14022B4
:100350005846FFF79DFF444A538ADB07FCD51C37FC
:10036000BD46BDE8F08F424DC7F814D02BF4FF52C4
:1003700005F1200622F01F0206EB40164FEA401E50
:1003800005EB401304B91C780133B342FAD1ADF543
:10039000005DEC4654B30EF1FF36C7E90342C7E9EE
:1003A00001C02E440CF5005A6346A2EB0C08C7F8B6
:1003B00000E00C4603E003F5807353450FD016F8B8
:1003C000012F002AF7D008EB030118464FF4807282
:1003D00001F0D0FB034603F580735345EFD1D7E915
:1003E00001C021463A69D7F800E0FC681E4E738AC6
:1003F000DB07FCD54AF20153C6F814B0B3801A4E9D
:10040000738ADB07FCD5012309F80030E4B1194BEE
:1004100003EB0E080EF1FF3E1446ACEB02067544EA
:10042000894603E0A84504F580740CD015F8013F17
:10043000002BF7D0311920464022FFF729FFA845AD
:1004400004F58074F2D14946D7F814D07FE7084B01
:10045000CBF3042B03EB401301221C3703F80B20D2
:10046000BD46BDE8F08F00BF00400041B00800204D
:10047000B0000020CF00002010B42C492C4A0B887B
:1004800043F004030B80137843F0010313705368A7
:10049000DB07FCD440F604132548136243685C076D
:1004A000C3F38001FAD4234A234B1177936292F865
:1004B0002C30D906C3F30010F9D41E4982F820006D
:1004C00091F82C305B07FBD40B7F1A4A43F00203F0
:1004D0000B7792F82C309C07FBD4536A1549536272
:1004E00091F82C301807FBD49823124A81F8203059
:1004F0001369D905FCD50E4A40F6063313625368DA
:10050000C3F380015B07FAD40C480D4A4FF0E02397
:100510000124447140F2E734E0205C6182F823005A
:10052000072299611A6110BC704700BF004000416A
:10053000001C00400010004080BB01040008004087
:1005400000ED00E000F0E2B8FEE700BF11491248FC
:10055000814208B509D0114A904206D2013A121AD6
:1005600022F00302043201F005FB0D480D4A9042CF
:1005700007D2013A121A22F003020432002101F0DC
:10058000A7FA094B094A23F07F03936000F024FE89
:10059000FEE700BFD41E000000000020AC000020D9
:1005A000B0000020701200200000000000ED00E00C
:1005B000F0B5184DB5F802E007460E46BEF1000F43
:1005C00020D1A81E05F5FF7441F2210172460823CF
:1005D0000FFA82FCBCF1000F03F1FF334FEA420235
:1005E000B8BF81EA4C0C9BB2ACBF92B21FFA8CF23E
:1005F000002BEDD120F8022F0EF5807EA0421FFACD
:100600008EFEE3D187EA162335F8130080EA062030
:1006100080B2F0BDF0080020BFF34F8F0449054BB6
:10062000CA6802F4E0621343CB60BFF34F8FFEE76A
:1006300000ED00E00400FA05084A117841F6AA230B
:1006400041F6D102002918BF134603FB00F0012830
:1006500003D9012301339842FCD17047F00A0020EE
:1006600010B484461C24002009E0092B17D9373325
:10067000043C0CF80030231D00F1010015D021FAD4
:1006800004F303F00F03002AEFD1002BEDD144B1A6
:10069000043C60B921FA04F303F00F03F5E73033AB
:1006A000E6E730230CF80030013010BC70473023EF
:1006B0000CF800300130E2E708B5034B034AC3F8F9
:1006C000FC2FFFF7A9FF00BF00F00220EF6926F022
:1006D00038B50B4A136863B90A480B4D01684FF4EB
:1006E000FA6414602C68013101600CB1A14203D29C
:1006F00038BD013B136038BD2B60FFF7DDFF00BF45
:10070000040B0020000B0020FC0A0020124A1349B1
:10071000134813684FF0010C81F800C0016863446E
:10072000136011B18B4214D07047DBB2002BFBD1A8
:1007300010B40C480C4C03782278A3F10A01C9B21A
:10074000F02902D95242D2B222701344037010BC75
:100750007047002303607047F80A0020F00A002069
:10076000F40A00200000002001000020044A054B8C
:1007700011681B6899423CBF03F5FA631360704728
:10078000F40A0020F80A0020704700BF704700BF3D
:1007900038B54FF08242194B546A1D886369C3F320
:1007A00002738D4203F103034FF0010228BF0D468F
:1007B00002FA03F39D42014619D3636943F00043F3
:1007C00063612161636965F30D03636163694FF0E0
:1007D000824002216FF39B338022636180F807110E
:1007E00080F8052190F807319B07FBD538BD0448F8
:1007F0002A4601F0BFF90249E3E700BF080B0020D9
:10080000340C002010B4414B414A93F85800414940
:1008100040F0010083F8580093F83C0000F0F0002D
:1008200083F83C0093F83C0040F0070083F83C005C
:1008300093F8590040F0010083F8590093F83C0008
:1008400000F00F0083F83C0093F83C00402440F097
:10085000700083F83C00C2F8A8400B6943F4806341
:100860000B618B6943F001038B6153685B07FCD418
:100870004FF082431A7842F001021A70997811F011
:100880000101FBD14FF400024FF08243D2F88420E3
:10089000B3F828C002F01F001F2808BF052060F32E
:1008A0008A1CA3F828C0C2F34410B3F828C01F283C
:1008B00008BF1D2060F3040CA3F828C0C2F38222F5
:1008C000188D072A08BF032262F30E3018851A78A4
:1008D000114861F3C7121A701A7842F004021A70B4
:1008E0005862B3F808C061F3830CA3F808C0B3F8EA
:1008F00008C02CF0010C4FEA0C4C4FEA1C4CA3F83A
:1009000008C010BC4FF4807201F0E2B800800041D2
:10091000001C004000080040300B00202DE9F84387
:100920004FF082440746D4F824800E461546002B2B
:1009300057D01C46627823789A423ED3A378690147
:1009400008EB4512B3B9201D41F80800506863F365
:100950000D005060506801F1824563F39B30506098
:1009600095F804314FF0010C43F0400385F8043151
:1009700084F802C001F1824999F8073113F00103AC
:1009800017D05568A378EDB2022B257031D0AE4256
:1009900028BF2E461FB3667032463846211D01F02F
:1009A000E9F80122002389F80721A3703046BDE849
:1009B000F8831E463046BDE8F8839B1A9E4228BF46
:1009C0001E46002FF6D0211D11443846324601F054
:1009D000D1F86378334463703046BDE8F8836770BC
:1009E000DFE7074C02EB021304EB8304FFF770FE12
:1009F000A0E751F808102A46201D01F0BBF8C6E711
:100A0000300C002071B1F8B5054617461E460C465D
:100A10002146284633463A46FFF780FF241A05440C
:100A2000F6D1F8BD704700BF70B50E464FF0824159
:100A300054014D6A05EB4215D3B16B6923F00043B5
:100A40006B6128616B6966F30D036B616B6904F17F
:100A5000824C6FF39B336B61022280238CF8072159
:100A60008CF805319CF807319B07FBD5304670BDEB
:100A70006B69C3F302730333012101FA03F3B34239
:100A800007D86B69043A18BF012262F3DF736B6108
:100A9000D7E701464FF0040C0448442313FB02C37C
:100AA00003443246184601F065F8CAE7300C0020CE
:100AB0000023FFF7B9BF00BF4FF082420B49536AD2
:100AC0005869196159696FF30D01596159694FF0FE
:100AD000020C80206FF39B31596182F807C182F8C4
:100AE000050192F807319B07FBD57047340C0020B5
:100AF0002DE9F0434FF0824499B0FFF7E9FDA38B55
:100B000013F008032BD0082080221121A083B14BC1
:100B1000A27284F80011402184F8051184F80421A0
:100B20005A68AD4D4FF0030C6CF31E725A605A694F
:100B30006CF31E725A61A94A1A60A94A1A615A686E
:100B400060F39B325A605A686FF30D025A600023BB
:100B5000184684F804112B7019B0BDE8F08394F89E
:100B60000721D50607D49C4B1878003818BF012000
:100B700019B0BDE8F0839B4D9B48AA88102184F8EA
:100B800007116E890680402640F2023084F8046125
:100B9000824295F80680B5F80690EF79B5F808C05E
:100BA00000F0D88015DC40F201118A427BD0B2F50A
:100BB000817F4EDA822A00F0E38078DC803A012AD5
:100BC00027D8022106A8ADF81830834DFFF7E0FDC5
:100BD00025E042F221018A4265D027DCB2F5086F98
:100BE00000F0E9806BDCB2F5A06F00F0DC80A2F5CC
:100BF000D062012A0DD8B9F5807F00F01881B9F5CF
:100C0000007F00F01A81032F00F0F4800F2F00F016
:100C10001A814FF0824320226F4D83F805212878F6
:100C2000003818BF012019B0BDE8F08342F221213D
:100C30008A4238D04FF6A1618A4200F0C28042F267
:100C4000A1139A42E5D16948634D0821FFF7A0FD41
:100C5000E5E7B2F5407F2DD040F201339A4222D031
:100C6000B2F5817FD5D11CF00F03D2D00CF0080271
:100C700059EA0202CDD15B0103F182431CF0800FDF
:100C800093F8062140F0E580D1060CD5102283F8B8
:100C9000042193F80721920605D52021012283F82B
:100CA000071183F80421FFF707FF4B4DB7E7B2F5B3
:100CB000807FAED12023484D84F80531AFE7B2F5EF
:100CC000106FA6D1444D019385F80090FFF7F4FE14
:100CD000404A4749032084F84001576C4FF0300CDC
:100CE00060F31E77576484F84561116484F820C16D
:100CF000576B60F31E775763A1F1440E802784F889
:100D00002471C2F830E084F86061D2F874E0019B8D
:100D100063F31E7EC2F874E084F8647184F8A00165
:100D2000D2F8A43060F31E73C2F8A43001F1CC03F2
:100D300084F8A561C2F8A03084F880C1D2F894305C
:100D4000883160F31E73C2F8943084F88471C2F85D
:100D5000901064E71CF00F033FF45BAF0CF0080247
:100D600059EA02027FF455AF5B011CF0800F03F1DA
:100D700082431ABF202283F8052183F8051192E7E8
:100D80001CF0080F96D10CF00F035B0103F18243B6
:100D900003F580731CF0500F9B7914BFC3F340130D
:100DA000C3F300130DE7FFF787FE69F07F03DBB2A3
:100DB000094DA37233E70848074D0121FFF7E8FC0E
:100DC0002DE7012106A8ADF81830034DFFF7E0FC30
:100DD00025E700BF300B00202D0B0020540E002013
:100DE000340C0020500E0020080B002004000020CE
:100DF000BC0C0020B8F1030F3FF60BAF06AE482243
:100E00000021304600F064FE8DF81970B8F1000F33
:100E100031D1042240F209438DF81820ADF81A3080
:100E20009DF818102B4D3046FFF7B2FCF7E62A4824
:100E3000284D1221FFF7ACFCF1E62848254D622130
:100E4000FFF7A6FCEBE62648224D0521FFF7A0FCA4
:100E5000E5E694067FF527AF202283F8042193F876
:100E6000072150067FF51FAF4021022283F80711AA
:100E700083F8042117E71B4BDFF86C900FCB02AC13
:100E800084E80F00A046002758F8043B09EB070050
:100E900019680122FFF7E4FBB0450744F4D10023B1
:100EA000AA7909F80730114B53F82240204600F088
:100EB00007FF431C5B008DF818302278002AAFD062
:100EC0003146234601F8022F13F8012F002AF9D1E9
:100ED000A6E700BF2D0B0020E01D0000140000203D
:100EE0000C000020F41D00000C0B0020D01D0000A1
:100EF00008B5FFF787FC054B4FF0824200211970BF
:100F0000137843F00203137008BD00BF2D0B0020BF
:100F100038B54FF0824301225C6A636BC3F30273FE
:100F200003330D469A40954204F1200401461AD33A
:100F3000636943F0004363612161636965F30D03F5
:100F4000636163694FF0824C6FF39B3363610222EC
:100F500080238CF827218CF825319CF827319B07BA
:100F6000FBD5284638BD03482A4600F003FE014958
:100F7000E2E700BF780C002038B54FF08243012231
:100F80005C6A636BC3F3027303330D469A40954268
:100F900004F1200401461AD3636943F000436361FE
:100FA0002161636965F30D03636163694FF0824CEE
:100FB0006FF39B336361022280238CF827218CF826
:100FC00025319CF827319B07FBD5284638BD0348BF
:100FD0002A4600F0CFFD0149E2E700BF780C00206F
:100FE00070B504460D46FFF783FD00B970BD294674
:100FF00020460023BDE870400222FFF78FBC00BFEF
:1010000070B505460E46FFF773FD00B970BD4EB1D1
:1010100034462146284600230222FFF77FFC241A8B
:101020000544F6D1304670BD002A0FDD024405E0CC
:1010300000F8013B824201F1010107D00B78002B3F
:10104000F6D1202300F8013B8242F7D1704700BF60
:1010500070B50D4604464FF400720021284600F09A
:1010600037FD1CBB184CAC4604F13006A646BEE862
:101070000F00B6450CF1100C04F110044CF8100CE4
:101080004CF80C1C4CF8082C4CF8043CEED107CC66
:101090004AF65523CCF800002088CCF80410CCF890
:1010A0000820ACF80C00A5F8FE3170BD7E2CFCD8F1
:1010B000631E3E2B88BFA4F14003002BF5D1034BE8
:1010C0001868286070BD00BF041E0000B41D000039
:1010D00010B50C463B492068884282B001D002B06E
:1010E00010BD01F11441606801F52C1101F60231C7
:1010F0008842F4D13449D4F8FC018842EFD1A16888
:10110000880404D53148D4F81CC08445E7D1C90708
:1011100003D42169B1F5807F34D0002B45D0A1697B
:10112000002942D01868814208D040F6630C61451E
:1011300001D8002843D04FF0FF311960616940F6B3
:1011400063008142CBD801F0070403EBD1010120F9
:1011500091F808C0A04010EA0C0F5C685FFA80FEAE
:1011600005D14CEA0E0C013481F808C05C601B68A4
:10117000A342B4D8002AB2D1154B164A1B681E33BD
:101180001360ACE7E068C1B20029C6D1A0F5804188
:10119000B1F5F82FC1D204F12001CDE90023FFF70A
:1011A000B3F8DDE90023002BB9D1002A97D1084B11
:1011B000084A1B6803F59673136002B010BD1960EE
:1011C000BCE700BF5546320A306FB10A6044115582
:1011D000000B0020FC0A0020F8B5654B9B68002B33
:1011E00040F09D80634A13709368002BFCD1624AE3
:1011F000116963F341011161D3685907FCD5136983
:10120000C82161F31743136113695B4923F00C0391
:101210001361136943F002031361CB68DA07FCD54D
:10122000554AD3689B07FCD4544B1A78D70777D517
:10123000514C6420FFF700FAE3689D07F9D44E4A49
:10124000136923F002031361D3685C07FCD51369AB
:10125000012161F383031361136943F002031361F6
:10126000FFF792FA4FF48042136803F16043B3F53D
:10127000403F32D85468601C2FD0E1072DD524F0B0
:101280000103A3F58043B3F5F82F26D23C4BD2F8E7
:1012900068229A4254D0394B1B7813F00102394B23
:1012A00010D13949D3F8FC0F88425DD0D3F8FC0F38
:1012B000364A904205D0C3F8FC1F4FF4FA70FFF78E
:1012C000BBF9304B0022C3F8FC2F4FF480431A685F
:1012D00082F30888264A936020472D4FFFF7CCF809
:1012E000BFF35F8F62B6FFF703FE2A4E2A4C402001
:1012F000FFF74CFA0A2333700125FFF7F9FB20B101
:10130000237803F0FF02A3B12570237863B9237813
:10131000002BF2D1FF2300BF013BFCD1EDE7FEE73C
:101320001B785E078BD583E700F008FA00F006FA19
:10133000FAE74FF480403A60FFF728FA3570E3E7A8
:101340000E4B1B78DB0705D40E4A104BD2F8FC2F4E
:101350009A42A0D00B4A0D49104BC2F8FC1F1B68E3
:101360000B4F32333B60B9E7094FC3F8FC2FB5E7A9
:1013700000ED00E00020004000180040000C00409C
:101380007CB0EE8700F00220EF6916F0EF6926F0DE
:10139000FC0A002001000020940E0020000B002019
:1013A000F8B504220E46FFF783FB864219D1194C8B
:1013B000194D1A4F7A686A600023C4E90033C4E902
:1013C000023323822B73AB6813489B1BAB60F02363
:1013D00023700A23E371BDE8F84004220D21FFF7D2
:1013E00067BB0C4C0C4D0D4F0023C4E90033C4E91E
:1013F00002332382F02323700A23E37101232B732A
:1014000004227B68A2700D2128466B60FFF750FB19
:10141000D0E700BFCC1100209C000020E01100208C
:101420001F4A002310B5C2E90033C2E902331D4C44
:10143000136178B3E17D02F1080E082394F811C01E
:101440000CF03F0CBCF11C0F0ED0BCF13F0F0BD0C9
:10145000994228BF1946B0B1023B1B021380BDE878
:1014600010400F48FFF79CBF0C33DBB240F61C2442
:10147000AEF8004099424FF005048EF8034028BFB3
:1014800019460028E8D1013B1370BDE8104004481C
:10149000FFF786BFE17C02F1040E0423CEE700BF14
:1014A000A00E0020E01100202DE9F84FDFF8B480F5
:1014B000B8F816B0D8F811309BFA9BFB1FFA8BFBDB
:1014C000BBF1000F32D0284D284E074693FA83F91E
:1014D000002410E05046FFF7BBFD04224FF40071DA
:1014E0002846FFF7E5FAB3680134A3F50073A34576
:1014F000B360B4461CD0FFF7FBFA844605222946A8
:101500003B462846BCF1000F2AD009EB040A002F05
:10151000E0D14FF40071FFF775FA154B3A462946B2
:101520005046FFF7D5FDFFF721F9DCE7DFF83CC0B7
:10153000104BD8F80440CCF804400021C3E9001156
:10154000C3E90211F0221A700A221982DA718CF8AA
:101550000C10BDE8F84F054804220D21FFF7A8BA8A
:10156000BDE8F88FE0110020CC0F00209C00002087
:10157000B40E0020CC11002070B5002384B00522E9
:1015800001211846FFF7CAF908B904B070BD534CE1
:10159000534D002305221F212046FFF7BFF9E37BAF
:1015A000A668AE605A2B45D8DFE803F02E44448F7E
:1015B00044444444444444444444444444447E44B1
:1015C000444444444444892E44442E444444445AAC
:1015D000446A444476447C444444442E4444444451
:1015E00044444444444444444444444444444444BB
:1015F00044444444444444444444444444444444AB
:101600004444444444449500364B646834480021C3
:10161000F022C3E90211C3E900111A700A22DA713B
:101620001982042229730D216C6004B0BDE870405A
:10163000FFF73EBA2B4B646829480022F021C3E92A
:101640000022C3E902221A82197001220A21D971EB
:101650002A7305214FF400529A8199700422E2E71F
:10166000214A07CA01AB0C2E83E8070088BF0C2271
:101670004FF00C01184688BFAA60FFF791FE84E77F
:101680001A481B4A4FF40033C0E90023082104B074
:10169000BDE87040FFF784BE012004B0BDE8704093
:1016A000FFF702BF0020F8E7124913481822FFF79E
:1016B000BBFCE17C1148242928BF2421E7E7002056
:1016C00004B0BDE87040FFF7ABBEE17C05481229CD
:1016D00028BF1221DBE70120F2E700BFE011002064
:1016E0009C000020CC110020941E0000980E0020C9
:1016F00000003E7FA81D0000800000207800002030
:1017000030B5EFF30883054C2360036883F3088842
:101710004568A847236883F3088830BD6812002015
:1017200000B583B0014601226846FEF799FF082103
:101730006846FFF7EDFB03B05DF804FB2DE9F04FC1
:10174000DFF868A2DFF868929A4C9B4F9B4E9C4D45
:10175000DFF8708200227A2383B0CAF8002089F86B
:101760000030FFF709FF40212046FFF739FC4FF01A
:10177000000B04F800B0386010B928603460F0E75E
:10178000FEF7F4FF38683460C5F800B00028E8D0F0
:1017900021465B460A78462A2DD8222A37D9A2F15B
:1017A000230CBCF1230F32D8DFE80CF0403131318B
:1017B00031313131313B31313112121212121212E8
:1017C000121212313131313131313535353535354E
:1017D000D8F80030303A42EA03120131C8F800204C
:1017E00031602B683868013383422B60B9D231688D
:1017F0000A78462AD1D9662A07D8602A07D9D8F8A4
:101800000030573A42EA0312E7E7FF2AE9D089F8A5
:1018100000200022E1E7D8F80030373A42EA03120C
:10182000DBE7D8F80030CAF80030F2E799F800207A
:10183000473A302A52D8DFE812F020011501510052
:10184000510051005100510051000A015100510056
:10185000FE00D50051005100AF00A00092007F00B3
:101860003100510051005100510051005100510010
:1018700051005100510051005100510070005100C1
:1018800051005100510051005100650051005100BC
:10189000510051005100510051005600D8F800305D
:1018A000DAF800B063B15B440193002319461BF8DA
:1018B000010BFEF77DFE019B5B450146F7D1034618
:1018C000012141480193FFF723FB019B1846FFF7D5
:1018D00027FF3E480321FFF71BFB31687A2389F875
:1018E0000030002279E7DAF8003036481B68C8F883
:1018F00000300421FFF70CFB7A23316889F80030AF
:1019000000226AE70121DAF80000FFF701FB7A23E1
:10191000316889F8003000225FE7DAF800302948A2
:101920001B88C8F800300221FFF7F2FA7A233168E9
:1019300089F80030002250E7D8F80020DAF80000DB
:10194000002A40F0AF80224B186003212148FFF7A6
:10195000DFFA7A23316889F8003000223DE7D8F8B1
:101960000000FEF77FFC03211B48FFF7D1FA7A2322
:10197000316889F8003000222FE7DAF80030174A82
:10198000934200F09580D8F800201A607A233168DD
:1019900089F80030002220E72A211148FFF7B8FA21
:1019A0007A23316889F80030002216E754120020AB
:1019B000581200200C1200205C120020501200204F
:1019C0006012002064120020C81D0000CC1D000021
:1019D00000120020C41D0000C01D00000CED00E03E
:1019E000A01E00000133C21A2B60D8F80030DAF8CC
:1019F00000009A4228BF1A46304B01319B461A60BC
:101A0000316000F0B7F82E4ADBF8003013702A6816
:101A10001A44013A2A603268591E0A44D8F8001064
:101A20003260DBB2994237D800BF7A23316889F837
:101A300000300022D1E6D8F80010DAF80000FFF7F5
:101A40009BFA7A23316889F800300022C5E6DAF87B
:101A50000030D8F800201A707A23316889F80030F5
:101A60000022BAE6DAF80030D8F800201A807A238B
:101A7000316889F800300022AFE6D8F80000FFF79F
:101A80003FFE104B1B78002B3FF427AF01210E487F
:101A9000FFF73EFA316821E7DAF80000C91AFFF7CC
:101AA000AFFAC1E7094B92081968FEF7F1FB4CE762
:101AB0000020FEF76BFEDAF8003064E70412002025
:101AC000081200206C120020BC1D00000012002033
:101AD000830730B547D0541E002A3ED0CAB2034611
:101AE00001E0013C39D303F8012B9D07F9D1032C08
:101AF0002CD9CDB205EB05250F2C05EB054535D9C5
:101B0000A4F1100222F00F0C03F1100EE6444FEA8C
:101B1000121C1A46C2E90055C2E90255103272453C
:101B2000F8D10CF1010214F00C0F03EB021204F0D7
:101B30000F0C13D0ACF1040323F00303043313445C
:101B400042F8045B9342FBD10CF003042CB1C9B200
:101B50001C4403F8011BA342FBD130BD644613466D
:101B6000002CF4D1F9E703461446C0E71A46A44610
:101B7000E0E700BF844641EA000313F003036DD1A0
:101B8000403A41D351F8043B40F8043B51F8043B40
:101B900040F8043B51F8043B40F8043B51F8043B47
:101BA00040F8043B51F8043B40F8043B51F8043B37
:101BB00040F8043B51F8043B40F8043B51F8043B27
:101BC00040F8043B51F8043B40F8043B51F8043B17
:101BD00040F8043B51F8043B40F8043B51F8043B07
:101BE00040F8043B51F8043B40F8043B51F8043BF7
:101BF00040F8043B51F8043B40F8043B51F8043BE7
:101C000040F8043B403ABDD2303211D351F8043B86
:101C100040F8043B51F8043B40F8043B51F8043BC6
:101C200040F8043B51F8043B40F8043B103AEDD235
:101C30000C3205D351F8043B40F8043B043AF9D286
:101C4000043208D0D2071CBF11F8013B00F8013B59
:101C500001D30B8803806046704700BF082A13D366
:101C60008B078DD010F003038AD0C3F10403D21A7E
:101C7000DB071CBF11F8013B00F8013B80D331F8B2
:101C8000023B20F8023B7BE7043AD9D3013A11F832
:101C9000013B00F8013BF9D20B7803704B7843709D
:101CA0008B788370604670470000000000000000E1
:101CB0000000000000000000000000000000000024
:101CC00030B490F800F020F007016FF0000C10F035
:101CD000070491F820F040F048804FF000046FF0C6
:101CE0000700D1E9002391F840F000F1080082FAE2
:101CF0004CF2A4FA8CF283FA4CF3A2FA8CF34BBBAD
:101D0000D1E9022382FA4CF200F10800A4FA8CF225
:101D100083FA4CF3A2FA8CF3E3B9D1E9042382FAF3
:101D20004CF200F10800A4FA8CF283FA4CF3A2FA08
:101D30008CF37BB9D1E9062301F1200182FA4CF240
:101D400000F10800A4FA8CF283FA4CF3A2FA8CF3A7
:101D5000002BC6D0002A04BF04301A4612BAB2FAC9
:101D600082F200EBD20030BC7047D1E9002304F0CE
:101D70000305C4F100004FEAC50514F0040F91F803
:101D800040F00CFA05F562EA05021CBF63EA0503A0
:101D900062464FF00004AAE756656874726F6E6978
:101DA00063610000000000004D6963726F43414EA3
:101DB0002D464400F0FFFFFF000000000600000079
:101DC000580A0D00590A0D005A000000230A0D00A0
:101DD00000000000981D0000A81D00000C0B002052
:101DE00012010002EF020140D80473E40142010233
:101DF00003010000FC61800010608000146080001E
:101E000018608000EB3C9055463220554632200049
:101E1000020101000240007E3EF83F000100010087
:101E20000000000000000000800029420042007510
:101E300043414E46445F424F4F5446415431362051
:101E40002020000055463220426F6F746C6F616431
:101E500065722076656874726F6E69636120535293
:101E60000D0A4D6F64656C3A204D6963726F434192
:101E70004E2D46440D0A426F6172642D49443A204A
:101E80004D6963726F43414E2D46445F56312E318A
:101E90000D0A00000000000800003E800200020061
:101EA00076312E31205B41726475696E6F3A5859F4
:101EB0005A5D204175672020312032303236203281
:0C1EC000323A33343A34360A0D00000088
:081ECC00A8FCFF7F01000000EB
:101ED400C801000000C2010000000800050F050051
:101EE40000000000090262000301008032080B00B8
:101EF400020202010009040000010202010005249B
:101F0400001001042402060524060001052401032F
:101F140001070583030800FF09040100020A000009
:101F24000007058102400000070502024000000985
:101F34000402000200065000070584024000000766
:101F4400050502400000000000800202200000009D
:101F5400000000000000000000000000000000007D
:101F64000000000000000000312E30305342535571
:0C1F740000000000000000000000000061
:103FF000000000000000000000000000441E00005F
:00000001FF
